:1000000080890120CDD40000E3880400A1D4000041
:10001000A1D40000A1D40000A1D400000000000081
:1000200000000000000000000000000021CD0000E2
:10003000A1D4000000000000CDCC0000A1D400003D
:10004000D1CD0000A9220200D1CD0000D1CD000009
:10005000D1CD0000D1CD0000D1CD0000D1CD000028
:10006000D1CD0000D1CD0000D1CD0000D1CD000018
:10007000D1CD0000D1CD0000D1CD0000D1CD000008
:10008000D1CD0000D1CD0000D1CD0000D1CD0000F8
:10009000D1CD0000D1CD0000D1CD0000D1CD0000E8
:1000A000D1CD0000D1CD0000D1CD0000D1CD0000D8
:1000B000D1CD0000D1CD0000D1CD0000D1CD0000C8
:1000C000D1CD0000D1CD0000D1CD0000D1CD0000B8
:1000D000D1CD0000D1CD0000D1CD0000D1CD0000A8
:1000E000D1CD0000D1CD0000D1CD0000D1CD000098
:1000F000D1CD0000D1CD0000D1CD0000D1CD000088
:1001000001F0FF01102A2BDB10F0070F08D010F8C8
:10011000013B013A8B422DD010F0070F42B3F6D1CC
:10012000F0B441EA012141EA014122F007047FF0E5
:1001300000070023F0E80256083C85EA010586EA3C
:10014000010685FA47F5A3FA87F586FA47F6A5FA78
:1001500087F68EB9EED1F0BC01F0FF0102F0070284
:1001600032B110F8013B013A83EA010313B1F8D12F
:100170000020704701387047002D06BF3546033810
:10018000073815F0010F07D1013015F4807F02BF49
:10019000013015F4C03F0130F0BC0138704700BF9A
:1001A00081F0004102E000BF83F0004330B54FEA28
:1001B00041044FEA430594EA050F08BF90EA020F95
:1001C0001FBF54EA000C55EA020C7FEA645C7FEA28
:1001D000655C00F0E2804FEA5454D4EB5555B8BF4B
:1001E0006D420CDD2C4480EA020281EA030382EABC
:1001F000000083EA010180EA020281EA0303362D4E
:1002000088BF30BD11F0004F4FEA01314FF4801C20
:100210004CEA113102D0404261EB410113F0004F32
:100220004FEA03334CEA133302D0524263EB4303E9
:1002300094EA050F00F0A780A4F10104D5F1200E87
:100240000DDB02FA0EFC22FA05F2801841F10001E2
:1002500003FA0EF2801843FA05F359410EE0A5F1B6
:1002600020050EF1200E012A03FA0EFC28BF4CF0E7
:10027000020C43FA05F3C01851EBE37101F000459D
:1002800007D54FF0000EDCF1000C7EEB00006EEBAA
:100290000101B1F5801F1BD3B1F5001F0CD3490834
:1002A0005FEA30004FEA3C0C04F101044FEA44528B
:1002B00012F5800F80F09A80BCF1004F08BF5FEA12
:1002C000500C50F1000041EB045141EA050130BDF2
:1002D0005FEA4C0C404141EB0101013C28BFB1F504
:1002E000801FE9D291F0000F04BF01460020B1FA4F
:1002F00081F308BF2033A3F10B03B3F120020CDA22
:100300000C3208DD02F1140CC2F10C0201FA0CF0FF
:1003100021FA02F10CE002F11402D8BFC2F1200C64
:1003200001FA02F120FA0CFCDCBF41EA0C0190401A
:10033000E41AA2BF01EB0451294330BD6FEA040463
:100340001F3C1CDA0C340EDC04F11404C4F120024E
:1003500020FA04F001FA02F340EA030021FA04F360
:1003600045EA030130BDC4F10C04C4F1200220FAB7
:1003700002F001FA04F340EA0300294630BD21FAF5
:1003800004F0294630BD94F0000F83F4801306BFBB
:1003900081F480110134013D4EE77FEA645C18BFAF
:1003A0007FEA655C29D094EA050F08BF90EA020F46
:1003B00005D054EA000C04BF1946104630BD91EA3E
:1003C000030F1EBF0021002030BD5FEA545C05D141
:1003D0004000494128BF41F0004130BD14F5800480
:1003E0003CBF01F5801130BD01F0004545F0FE41F4
:1003F00041F470014FF0000030BD7FEA645C1ABF29
:10040000194610467FEA655C1CBF0B46024650EA5F
:10041000013406BF52EA033591EA030F41F400218B
:1004200030BD00BF90F0000F04BF0021704730B511
:100430004FF4806404F132044FF000054FF00001E6
:1004400050E700BF90F0000F04BF0021704730B5A7
:100450004FF4806404F1320410F0004548BF40427C
:100460004FF000013EE700BF42004FEAE2014FEAD1
:1004700031014FEA02701FBF12F07F4393F07F4FAC
:1004800081F06051704732F07F4208BF704793F0AF
:100490007F4F04BF41F40021704730B54FF46074C2
:1004A00001F0004521F000411CE700BF50EA0102C5
:1004B00008BF704730B54FF000050AE050EA01026E
:1004C00008BF704730B511F0004502D5404261EBDE
:1004D00041014FF4806404F132045FEA915C3FF41F
:1004E000D8AE4FF003025FEADC0C18BF03325FEABC
:1004F000DC0C18BF033202EBDC02C2F1200300FA6D
:1005000003FC20FA02F001FA03FE40EA0E0021FA91
:1005100002F11444BDE600BF70B54FF0FF0C4CF47F
:10052000E06C1CEA11541DBF1CEA135594EA0C0F31
:1005300095EA0C0F00F0DEF82C4481EA030621EA6C
:100540004C5123EA4C5350EA013518BF52EA0335A7
:1005500041F4801143F4801338D0A0FB02CE4FF059
:100560000005E1FB02E506F00042E0FB03E54FF089
:100570000006E1FB03569CF0000F18BF4EF0010E81
:10058000A4F1FF04B6F5007F64F5407404D25FEA7D
:100590004E0E6D4146EB060642EAC62141EA555130
:1005A0004FEAC52040EA5E504FEACE2EB4F1FD0C72
:1005B00088BFBCF5E06F1ED8BEF1004F08BF5FEAF0
:1005C000500E50F1000041EB045170BD06F00046A2
:1005D00046EA010140EA020081EA0301B4EB5C044F
:1005E000C2BFD4EB0C0541EA045170BD41F4801147
:1005F0004FF0000E013C00F3AB8014F1360FDEBF6C
:10060000002001F0004170BDC4F10004203C35DA47
:100610000C341BDC04F11404C4F1200500FA05F3CA
:1006200020FA04F001FA05F240EA020001F000426B
:1006300021F0004110EBD37021FA04F642EB0601E1
:100640005EEA430E08BF20EAD37070BDC4F10C040B
:10065000C4F1200500FA04F320FA05F001FA04F2CF
:1006600040EA020001F0004110EBD37041F10001BB
:100670005EEA430E08BF20EAD37070BDC4F12005C6
:1006800000FA05F24EEA020E20FA04F301FA05F22E
:1006900043EA020321FA04F001F0004121FA04F2D6
:1006A00020EA020000EBD3705EEA430E08BF20EAA6
:1006B000D37070BD94F0000F0FD101F000464000E0
:1006C00041EB010111F4801F08BF013CF7D041EA62
:1006D000060195F0000F18BF704703F00046520066
:1006E00043EB030313F4801F08BF013DF7D043EA37
:1006F0000603704794EA0C0F0CEA135518BF95EAED
:100700000C0F0CD050EA410618BF52EA4306D1D173
:1007100081EA030101F000414FF0000070BD50EA92
:10072000410606BF1046194652EA430619D094EA1C
:100730000C0F02D150EA013613D195EA0C0F05D106
:1007400052EA03361CBF104619460AD181EA03015A
:1007500001F0004141F0FE4141F470014FF0000012
:1007600070BD41F0FE4141F4780170BD70B54FF0AD
:10077000FF0C4CF4E06C1CEA11541DBF1CEA13552D
:1007800094EA0C0F95EA0C0F00F0A7F8A4EB05040F
:1007900081EA030E52EA03354FEA013100F0888006
:1007A0004FEA03334FF0805545EA131343EA1263CF
:1007B0004FEA022245EA111545EA10654FEA002684
:1007C0000EF000419D4208BF964244F1FD0404F53D
:1007D000407402D25B084FEA3202B61A65EB030599
:1007E0005B084FEA32024FF480104FF4002CB6EB56
:1007F000020E75EB030E22BFB61A754640EA0C00D6
:100800005B084FEA3202B6EB020E75EB030E22BF15
:10081000B61A754640EA5C005B084FEA3202B6EB56
:10082000020E75EB030E22BFB61A754640EA9C0015
:100830005B084FEA3202B6EB020E75EB030E22BFE5
:10084000B61A754640EADC0055EA060E18D04FEAA3
:10085000051545EA16754FEA06164FEAC30343EA43
:1008600052734FEAC2025FEA1C1CC0D111F4801F10
:100870000BD141EA00014FF000004FF0004CB6E709
:1008800011F4801F04BF01430020B4F1FD0C88BFA8
:10089000BCF5E06F3FF6AFAEB5EB030C04BFB6EBB3
:1008A000020C5FEA500C50F1000041EB045170BDA6
:1008B0000EF0004E4EEA113114EB5C04C2BFD4EBD3
:1008C0000C0541EA045170BD41F480114FF0000E57
:1008D000013C90E645EA060E8DE60CEA135594EAD3
:1008E0000C0F08BF95EA0C0F3FF43BAF94EA0C0FD6
:1008F0000AD150EA01347FF434AF95EA0C0F7FF44B
:1009000025AF104619462CE795EA0C0F06D152EA9E
:1009100003353FF4FDAE1046194622E750EA410682
:1009200018BF52EA43067FF4C5AE50EA41047FF493
:100930000DAF52EA43057FF4EBAE12E74FEA4102F6
:1009400012F5001215D211D56FF47873B3EB625221
:1009500012D94FEAC12343F0004343EA505311F048
:10096000004F23FA02F018BF404270474FF00000DA
:10097000704750EA013005D111F0004008BF6FF018
:10098000004070474FF00000704700BF4A0011D28E
:1009900012F5001211D20DD56FF47873B3EB6252D9
:1009A0000ED44FEAC12343F0004343EA505323FAE5
:1009B00002F070474FF00000704750EA013002D15A
:1009C0004FF0FF3070474FF00000704780F000405C
:1009D00002E000BF81F0004142001FBF5FEA410317
:1009E00092EA030F7FEA226C7FEA236C6AD04FEA17
:1009F0001262D2EB1363C1BFD2184140484041405C
:100A0000B8BF5B42192B88BF704710F0004F40F40D
:100A1000000020F07F4018BF404211F0004F41F429
:100A2000000121F07F4118BF494292EA030F3FD0F5
:100A3000A2F1010241FA03FC10EB0C00C3F1200308
:100A400001FA03F100F0004302D5494260EB400097
:100A5000B0F5000F13D3B0F1807F06D340084FEA02
:100A6000310102F10102FE2A51D2B1F1004F40EBF7
:100A7000C25008BF20F0010040EA0300704749005F
:100A800040EB0000013A28BFB0F5000FEDD2B0FAFC
:100A900080FCACF1080CB2EB0C0200FA0CF0AABF1F
:100AA00000EBC25052421843BCBFD04018437047BD
:100AB00092F0000F81F4000106BF80F400000132C3
:100AC000013BB5E74FEA41037FEA226C18BF7FEA9A
:100AD000236C21D092EA030F04D092F0000F08BFDC
:100AE0000846704790EA010F1CBF0020704712F0C3
:100AF0007F4F04D1400028BF40F00040704712F102
:100B000000723CBF00F50000704700F0004343F066
:100B1000FE4040F4000070477FEA226216BF08469C
:100B20007FEA23630146420206BF5FEA412390EA5F
:100B3000010F40F4800070474FF0000304E000BF55
:100B400010F0004348BF40425FEA000C08BF704706
:100B500043F0964301464FF000001CE050EA0102CA
:100B600008BF70474FF000030AE000BF50EA0102DF
:100B700008BF704711F0004302D5404261EB4101CC
:100B80005FEA010C02BF84460146002043F0B643F1
:100B900008BFA3F18053A3F50003BCFA8CF2083A16
:100BA000A3EBC25310DB01FA02FC634400FA02FC1F
:100BB000C2F12002BCF1004F20FA02F243EB020026
:100BC00008BF20F00100704702F1200201FA02FC88
:100BD000C2F1200250EA4C0021FA02F243EB02007B
:100BE00008BF20EADC7070474FF0FF0C1CEAD052BF
:100BF0001EBF1CEAD15392EA0C0F93EA0C0F6FD080
:100C00001A4480EA010C400218BF5FEA41211ED05D
:100C10004FF0006343EA501043EA5111A0FB013149
:100C20000CF00040B1F5000F3EBF490041EAD3711E
:100C30005B0040EA010062F17F02FD2A1DD8B3F19A
:100C4000004F40EBC25008BF20F00100704790F009
:100C5000000F0CF0004C08BF49024CEA502040EA5B
:100C600051207F3AC2BFD2F1FF0340EAC250704721
:100C700040F400004FF00003013A5DDC12F1190F5F
:100C8000DCBF00F000407047C2F10002410021FAD1
:100C900002F1C2F1200200FA02FC5FEA310040F1E9
:100CA000000053EA4C0308BF20EADC70704792F062
:100CB000000F00F0004C02BF400010F4000F013A9A
:100CC000F9D040EA0C0093F0000F01F0004C02BF95
:100CD000490011F4000F013BF9D041EA0C018FE704
:100CE0000CEAD15392EA0C0F18BF93EA0C0F0AD00A
:100CF00030F0004C18BF31F0004CD8D180EA010030
:100D000000F00040704790F0000F17BF90F0004FC8
:100D1000084691F0000F91F0004F14D092EA0C0FAA
:100D200001D142020FD193EA0C0F03D14B0218BF3D
:100D3000084608D180EA010000F0004040F0FE4083
:100D400040F40000704740F0FE4040F4400070471F
:100D50004FF0FF0C1CEAD0521EBF1CEAD15392EA9E
:100D60000C0F93EA0C0F69D0A2EB030280EA010C8E
:100D700049024FEA402037D04FF0805343EA111127
:100D800043EA10130CF000408B4238BF5B0042F185
:100D90007D024FF4000C8B4224BF5B1A40EA0C002A
:100DA000B3EB510F24BFA3EB510340EA5C00B3EB5C
:100DB000910F24BFA3EB910340EA9C00B3EBD10F4A
:100DC00024BFA3EBD10340EADC001B0118BF5FEA9C
:100DD0001C1CE0D1FD2A3FF650AF8B4240EBC250C5
:100DE00008BF20F0010070470CF0004C4CEA502086
:100DF0007F32C2BFD2F1FF0340EAC250704740F4D5
:100E000000004FF00003013A37E792F0000F00F0C6
:100E1000004C02BF400010F4000F013AF9D040EA44
:100E20000C0093F0000F01F0004C02BF490011F4D8
:100E3000000F013BF9D041EA0C0195E70CEAD153D0
:100E400092EA0C0F08D142027FF47DAF93EA0C0FB7
:100E50007FF470AF084676E793EA0C0F04D14B029B
:100E60003FF44CAF08466EE730F0004C18BF31F04D
:100E7000004CCAD130F000427FF45CAF31F0004347
:100E80007FF43CAF5FE700BF4FF0FF3C06E000BFE0
:100E90004FF0010C02E000BF4FF0010C4DF804CD03
:100EA0004FEA40024FEA41037FEA226C18BF7FEA13
:100EB000236C11D001B052EA530C18BF90EA010F15
:100EC00058BFB2EB030088BFC81738BF6FEAE170A4
:100ED00018BF40F0010070477FEA226C02D15FEA40
:100EE000402C05D17FEA236CE4D15FEA412CE1D0AC
:100EF0005DF8040B704700BF844608466146FFE773
:100F00000FB5FFF7C9FF002848BF10F1000F0FBD54
:100F10004DF808EDFFF7F4FF0CBF012000205DF84D
:100F200008FB00BF4DF808EDFFF7EAFF34BF0120D2
:100F300000205DF808FB00BF4DF808EDFFF7E0FF6B
:100F400094BF012000205DF808FB00BF4DF808EDBC
:100F5000FFF7D2FF94BF012000205DF808FB00BF1F
:100F60004DF808EDFFF7C8FF34BF012000205DF801
:100F700008FB00BF4FEA4002B2F1FE4F0FD34FF023
:100F80009E03B3EB12620DD94FEA002343F00043F6
:100F900010F0004F23FA02F018BF404270474FF0A4
:100FA0000000704712F1610F01D1420205D110F02B
:100FB000004008BF6FF0004070474FF000007047DE
:100FC0007BB972B90029BEBF00204FF0004106E096
:100FD00008BF00281CBF6FF000414FF0FF3000F049
:100FE00077B8ADF1080C6DE904CE002909DB002BC0
:100FF0001ADB00F095F8DDF804E0DDE9022304B027
:101000007047404261EB4101002B1BDB00F088F888
:10101000DDF804E0DDE9022304B0404261EB410168
:10102000524263EB43037047524263EB430300F0C9
:1010300077F8DDF804E0DDE9022304B0404261EB1B
:1010400041017047524263EB430300F069F8DDF859
:1010500004E0DDE9022304B0524263EB430370472E
:1010600053B94AB9002908BF00281CBF4FF0FF310F
:101070004FF0FF3000F02CB8ADF1080C6DE904CE54
:1010800000F04EF8DDF804E0DDE9022304B070471B
:10109000D0B5FFF7E9F90C4B002206460F46FFF7E3
:1010A0003BFAFFF773FC0446FFF7BCF9074B00223D
:1010B000FFF732FA02460B4630463946FFF774F81E
:1010C000FFF764FC2146D0BD0000F03D0000F04178
:1010D000704700BF430803F05533C01A00F03333A4
:1010E000800800F03330184400EB10104FF001334B
:1010F00000F00F305843000E704710B50021044631
:10110000FFF710FF20B92046BDE81040FFF7C0BF31
:1011100004F10040FFF7BCFF404261EB410110BD0C
:101120002DE9F04786468C460846089E15467446CB
:101130001946002B40F0C2808542B2FA82F245D9AE
:101140004AB1C2F1200300FA02FC2EFA03F39540E3
:1011500043EA0C0C94404FEA154EA8B2BCFBFEF8D3
:10116000230C0EFB18CC08FB00F943EA0C4399450D
:1011700028D9EB1808F1FF3704D2994502D9A8F114
:1011800002072B44A3EB0903A4B2B3FBFEFC0EFB46
:101190001C330CFB00F044EA0344A04214D92C1980
:1011A0000CF1FF3304D2A04202D9ACF102032C446B
:1011B000241A43EA07401EB1D44000233460736010
:1011C000BDE8F0874746DDE76346F1E792BB431B86
:1011D00001214FEA154EAFB2B3FBFEFC200C0EFB13
:1011E0001C330CFB07F840EA0343984562D9EB181F
:1011F0000CF1FF3004D2984502D9ACF102002B4427
:10120000A3EB0803A4B2B3FBFEFC0EFB1C330CFBE8
:1012100007F744EA0344A7424ED92C190CF1FF33D7
:1012200004D2A74202D9ACF102032C44E41B43EAE6
:101230000040C0E7C2F1200320FA03F1954090403E
:101240002EFA03F303434FEA154EAFB2B1FBFEFC97
:101250000EFB1C10190C0CFB07F841EA00418845F5
:1012600004FA02F422D969180CF1FF3004D288453F
:1012700002D9ACF102002944A1EB08019BB2B1FBF9
:10128000FEFC0EFB1C110CFB07F743EA01439F42D7
:101290000ED9EB180CF1FF3104D29F4202D9ACF108
:1012A00002012B44DB1B41EA004192E76046E3E781
:1012B0006146F7E76046A3E76346B7E7834206D98E
:1012C00016B9002108467BE7C6E900E0F9E7B3FA62
:1012D00083F78FB9834201D3724508D8BEEB02046D
:1012E00060EB030301209C461EB9002168E73846E5
:1012F000FAE7C6E9004CF8E7C7F1200CBB4022FA38
:101300000CF41C432EFA0CF120FA0CF3B840014304
:101310004FEA14490EFA07F5B3FBF9F81FFA84FEF9
:1013200009FB18300B0C08FB0EFA43EA00439A4500
:1013300002FA07F240D9E31808F1FF3004D29A45C7
:1013400002D9A8F102002344A3EB0A0389B2B3FB3C
:10135000F9F809FB183308FB0EFE41EA03418E45FC
:101360002CD9611808F1FF3304D28E4502D9A8F1B7
:101370000203214443EA0040A0FB0298A1EB0E01C6
:101380004145CE46434602D306D14D4504D2B9EB82
:10139000020E68EB04030138002EA6D0B5EB0E0256
:1013A00061EB030101FA0CFC22FA07F34CEA030398
:1013B000F940C6E9003198E74046C5E74346D9E71A
:1013C00010F8012B11F8013B012A28BF9A42F7D0EF
:1013D000D01A7047034613F8012B002AFBD1181AC4
:1013E00001387047000000002DE9F047DFF8488120
:1013F00086B0824600AFD8F800000E46154646F08B
:1014000088F860B94D494E4A4E48462346F0B1FB34
:101410004D4846F0AEFB4A48462146F0A3FBD8F8BB
:10142000000083683921DB6898470446A0B9D8F8E2
:10143000000083683A461B6903219847041E25DA99
:101440006D4688B06A46414BC2E90534032342F831
:10145000103F4FF4C25110E0D8F800306D4688B00C
:101460001B686A463A49C2E905134FF40073938337
:10147000384B42F8103F4FF4E251374846F04BF8F2
:10148000AD4620461837BD46BDE8F0877868FEF7C0
:10149000D9FF27A3D3E90023FFF768F9804638680E
:1014A0008946FEF7CFFF02460B4640464946FEF707
:1014B0007DFE2A4B0022FFF72FF8FFF73FFAAAF82C
:1014C0000000F868FEF7BEFF19A3D3E90023FFF779
:1014D0004DF98046B8688946FEF7B4FF02460B46D0
:1014E00040464946FEF762FE1C4B0022FFF714F807
:1014F000FFF724FA30807869FEF7A4FF0CA3D3E944
:101500000023FFF733F9804638698946FEF79AFFD2
:1015100002460B4640464946FEF748FE0F4B002266
:10152000FEF7FAFFFFF70AFA2880AAE7AFF3008078
:101530000000000080842E41F865002062C0050094
:101540003DC0050061BB05007AC0050057C305001A
:10155000ABC2050003000001B88805000000A040F0
:101560002DE9F043DFF838928DB00446D9F8000039
:1015700000AF456845F0CDFF60B98A498A4A8B487B
:101580008E2346F0F6FA8A4846F0F3FA86488E2112
:1015900046F0E8FA284607F1080146F0D3FCFB7A4A
:1015A000DD061FD56C4688B06A46824B5361824B7C
:1015B0009361032342F8103F80484FF4C85145F02F
:1015C000AAFF0123A5463B747D4B1B6813B107F1AD
:1015D0001000984707F1100003F058FF3437BD465C
:1015E000BDE8F083980610D56C4688B06A46754B06
:1015F0005361714B9361032342F8103F6F484FF4DE
:10160000C85145F088FFA546E8E77B7B99071AD5C6
:10161000B81D04F04DF96C4688B0B7F906306A463B
:101620006949516164496548C2E90613042342F8D7
:10163000103F4FF4045145F06EFF02233B74FB88CA
:101640007B82A546C0E71A0611D56D4688B06A466A
:101650005E4B53610324584B9361584842F8104F36
:101660004FF4C85145F057FFAD463C74ACE77B7A68
:10167000DB0740F185806D4688B06A46544B4E4E7C
:1016800053614FF0030896614C4842F8108F4FF4B5
:10169000C85145F040FFAD46A3682046DB6841468F
:1016A00098470446002899D1D9F80000836807F1CB
:1016B00018021B694146984700280FDA88B06A462D
:1016C000444BD061C2E90536042342F8103F3B4841
:1016D0004FF4045145F01FFFAD467FE7F869FEF770
:1016E000B1FE2DA3D3E90023FFF740F88046B86987
:1016F0008946FEF7A7FE02460B4640464946FEF7DE
:1017000055FD354B0022FEF707FFFFF717F906B22C
:10171000786AFEF797FE20A3D3E90023FFF726F8A7
:101720008046386A8946FEF78DFE02460B464046E3
:101730004946FEF73BFD284B0022FEF7EDFEFFF782
:10174000FDF805B2F86AFEF77DFE13A3D3E9002386
:10175000FFF70CF88046B86A8946FEF773FE02462A
:101760000B4640464946FEF721FD1B4B0022FEF783
:10177000D3FEFFF7E3F83C747E82BD82F88223E754
:10178000164BFB6202230D48BB6207F128024FF49F
:10179000845145F0C0FE21E70000000080842E4106
:1017A000F865002062C005003DC0050061BB050072
:1017B0007AC00500FAC20500B0C30500B88805006C
:1017C000F46500200DC3050020C3050034C30500E7
:1017D00046C3050053C305000000A0407CC30500BC
:1017E0002DE9F04F054687B0334E304655F002FFE5
:1017F00030B93168314807B0BDE8F04F45F0F7BF68
:101800002F4B5D43B368029304AA5B680021304606
:101810009847041E18DBDDE9044A2A4BDFF8A8903C
:10182000A4FB03B703FB0A77394621A3D3E90023BE
:101830005846FFF715FC4FF0FF38D84579EB0707FE
:10184000039010D26FF08504204A214921482123BA
:1018500046F08FF9204821462A4646F08AF91B486F
:10186000212146F07FF9A5FB047405FB0A4410A36F
:10187000D3E9002321463846FFF7F2FBB84579EB60
:1018800004040346DED3039A824202D26FF01504A9
:10189000DAE700220092029A00211468039A304687
:1018A000A04704460028CFD107B0BDE8F08F00BFA5
:1018B00000CA9A3B00000000F0840500D2C9050070
:1018C000400D0300002D3101FFC99A3BF5C9050009
:1018D000A9C7050061BB05001CCA05000000000087
:1018E0002DE9F04F054687B0314F384655F082FE5E
:1018F000002853D02F4B5D43BB68029304AA5B685A
:10190000002138469847041E18DBDDE9044A2A4BBB
:10191000DFF8A890A4FB03B603FB0A66314622A3B6
:10192000D3E900235846FFF79BFB4FF0FF38D8451B
:1019300079EB0606039010D26FF08504204A214906
:1019400021481D2346F015F9204821462A4646F035
:1019500010F91B481D2146F005F9A5FB046405FBA1
:101960000A4411A3D3E9002321463046FFF778FB50
:10197000B04579EB04040346DED3039A824202D2D7
:101980006FF01504DAE700220092029A0021146831
:10199000039A3846A04704460028CFD107B0BDE8D7
:1019A000F08F00BFAFF3008000CA9A3B0000000038
:1019B000D4840500400D0300002D3101FFC99A3B7E
:1019C0009ACE0500A9C7050061BB05001CCA050029
:1019D0000128F8B50D4606D046F09EFF1623036099
:1019E0004FF0FF30F8BD55F036FF314A2B686E6876
:1019F000AD68A3FB023402FB06445B1944EBE574BB
:101A0000C50B45EA4145A5FB0256C90B5B1B02FB12
:101A10000161C0F30E0064EB0101A0FB0204C20BE4
:101A200042EA4442981A61F100011FA3D3E900235E
:101A3000FFF7C6FA06460D4614464FF02003EFF3B3
:101A4000118783F31288BFF36F8F1A4840F09CF818
:101A500068B9194A19491A48942346F08AF8154971
:101A6000184846F086F89421134846F07BF8114850
:101A700040F0A8F8144B0F489C60C3E9006540F0A3
:101A800091F858B90C4A11490D48C22346F071F833
:101A900008490F4846F06DF8C221E5E787F3118841
:101AA000BFF36F8F00209DE700CA9A3B0000000043
:101AB00000CA9A3B5C6C0020233707007C37070084
:101AC00061BB050091370700D01B0020503707008D
:101AD000673707000000000001A1D1E9000170474D
:101AE0003F718900100000002DE9F843D0E90B3563
:101AF000D0F828805C193034A0450F46164619D816
:101B00001D4DA3FB05011AA3D3E90023FFF7A8FA93
:101B10000346A4EB0800A0FB050123F07F4414A3B7
:101B2000D3E90023FFF79CFA20F07F403C6030604F
:101B3000BDE8F883DFF840900DA3D3E90023A8FBAC
:101B40000901FFF78DFA044605F1300008A3D3E937
:101B50000023A0FB0901FFF783FA24F07F4420F063
:101B60007F403C603060BDE8F88300BFAFF3008089
:101B70008D49FD1A0700000000CA9A3B00000000D2
:101B80002DE9F04F1D468DB04FF6FF739D429DF835
:101B90005890179C0E461CD023780133DBB2804648
:101BA0001746237073B35C495C4B81F80A9004F1CB
:101BB0001C000022C860C1E900870D8199600120E6
:101BC000114612F02DFE60B9636D13B1204619F075
:101BD00027FB94F8240010F0010721D00DB0BDE8D8
:101BE000F08F4F4A4F49504840F62F1345F0C1FF40
:101BF000404080F311884FF0030002DF636D002B3B
:101C0000E4D1E6E7464A4949474840F6221345F001
:101C1000B0FF404080F311884FF0030002DFC2E7BD
:101C200004210BA820F020FE0B9B41490097A1FB4B
:101C30000321CDE90377CDE9017738463D4A069483
:101C40005F1A01EB57013C4FA21AA7FB0272090A67
:101C5000D20940F2471707FB113302323749059189
:101C60000133D2B201210B9314F03AF830F00203A1
:101C70000CD02B4A32492C4840F2B37345F079FF1F
:101C8000404080F311884FF0030002DFD4F89480C5
:101C9000DDF82C90B4F89070B8F1000F2FD077B326
:101CA000D4F8843040F2712202FB03FA254A05FB86
:101CB0000AA3A6FB02014FF0070B09930BFB0611C9
:101CC00013A3D3E90023FFF7CBF9099B1D4A1E1884
:101CD000A9FB02010BFB09110DA3D3E90023FFF7B8
:101CE000BFF950443044804588BFA8EB060605F193
:101CF00001058CBFC4F89460C4F894A000E00135DD
:101D00002F44A4F890700DB0BDE8F08FAFF30080C1
:101D100000CA9A3B00000000F87D0020980C0020CB
:101D2000E898050040980500BC930500189A050046
:101D300021F1D49030200020CDCCCCCCD99501001D
:101D40001C9A05008D49FD1A002900F067812DE9D4
:101D5000F04F012895B0044600F24582DFF8C892A2
:101D600000EB800509EB451A1F466B010B939AF8AF
:101D7000983090468200D80755460C9200F13D827B
:101D80009AF83D300AEB8303D3F840A095F8293048
:101D900005EB8303D3F82CB0BAF1000F00F0DC8020
:101DA00052465946284617F073FC0646002840F074
:101DB00031819BF8003013F00E0F00F0488103F0E2
:101DC0000F03072B00F03E8114F024FB002840F0A5
:101DD0005482A300234409EB4313186500273B46B4
:101DE000A200161909EB46160121A6F89270C6F852
:101DF0009430002795F82580A6F8907095F8243047
:101E00000DF14500C3F342038DF8453012F044FE56
:101E1000C8F382080246002800F0F280434651468B
:101E2000584617F04DFD0B9A8049B6F8848009F8A2
:101E300002703123C5E90577A0FB0101C6E90173F2
:101E4000F76077A3D3E90023FFF70AF9306114F0B4
:101E500059F800F109030B93B8F1000F00F0FE816F
:101E600095F8246067F3000685F8246016F00106F3
:101E700040F08E80A300234409EB431BAB6DDBF8DD
:101E800010A04BB11B680D9393F8623003F003036D
:101E9000012B0F9300F05F826F6D002F40F02282C4
:101EA00012AB0D97BB460C930C9A089223B2604A72
:101EB0006048CDF810A004EB440C03EB43030AF296
:101EC000471102EB830309930695A8FB000342F830
:101ED0002C10912101FB0831574B0793574B059369
:101EE0000223129304EB030A4FF6FF734FF000082E
:101EF00003934BA3D3E90023CDF80880FFF7B0F894
:101F00005FFA8AFA019003210B9BCDF800805246BC
:101F1000404613F01BFE0C9916F064FC00286FD1AC
:101F2000BBF1000F0DD097F85A3043F0010387F84A
:101F30005A3036B10D9A92F8623043F0020382F8BB
:101F40006230A300234409EB431494F8983043F023
:101F5000010384F898304BE19BF8003003F00F0345
:101F6000072B56D00B9B03F13C00484421F00EF99F
:101F700010F0FF064ED195F83D3005EB8303D3F802
:101F800040A004238AF8003006238AF8013007E7CE
:101F9000A300234409EB431306951B69DDF82C804D
:101FA0000493019312AB00200893234F234B059316
:101FB000A21C0321CDE9020000900797D2B243464C
:101FC0000226129613F018FE12A916F00BFCB8B9EF
:101FD0001B4A059212A94AF2D832089100920321B5
:101FE000CDE90300CDE9010007974346069501229C
:101FF000129613F001FE12A916F0F4FB0028A0D0EF
:10200000A300234409EB4314236A13B1284617F0B5
:10201000BFF80C26304615B0BDE8F08F17F0FAB8BF
:102020008D49FD1A070000003020002000CA9A3BAD
:10203000187E0020002AE784ED7B0100811B000050
:10204000F59001009BF802305A067FF5BDAE2B6A71
:10205000002BDED116F00CFB0C90002800F00B8159
:1020600016F012FB0D90002800F002811AF03EFCE1
:102070000646002800F0C781D0F888004FF6FF72AE
:1020800006F11C0332850E93002800F0268106F12C
:102090007C0206F1780112F03FFB96F88E2096F84C
:1020A000761022F0070286F88E20002262F3C30128
:1020B00086F87610C6F88820A6F88C209BF80020B9
:1020C00002F00F02072A00F0F48096F8762022F042
:1020D000770242F0110286F87620012196F8392025
:1020E00002F03F0262F07F0286F83920B6F8F22053
:1020F00022F4807222F00102A6F8F22096F87720EE
:1021000061F3020286F8772096F83C2096F8D21008
:1021100022F0070286F83C20002262F3000186F8D4
:10212000D2107F2186F8D1100E2186F8D5104FF4F9
:10213000C021C6F8B011C6E912227286C6F82E2058
:1021400086F83B203265A6F8B621A6F8AC213046C9
:1021500001F062FA0C9BC6F87C31002286F87821E7
:102160001AF062FE96F8BC1160F3020186F8BC1109
:102170001AF060FE96F8BC1160F3C50186F8BC1138
:1021800096F8A811002262F3410186F8A8119BF885
:10219000002002F00F02072A0ABF95F8251001213E
:1021A000490930461BF098FB06F580701CF0DAFBFD
:1021B000A3001A1909EB42120C9BD3670D9BC2F8BE
:1021C0008030002206F11C032B62C6E90522F6616D
:1021D000327020F035FE00283FF4F6AD284616F0A8
:1021E000D7FF032616E714F015F900287FF411AF86
:1021F0000026304615B0BDE8F08F14F00BF900282A
:10220000F6D09AF89830D9077FF503AF9AF83D30A9
:102210000AEB830350461A6C9AF829300AEB8303C1
:10222000D96A17F035FA064600287FF4F3AEDAF8DB
:102230005030002B3FF4EDAE1A7902F0FF014AB99D
:1022400042F2107202FB08F2AAF89010AAF89270FB
:10225000CAF894201B79002BCAD0DAE69BF80070EC
:1022600007F00F07A7F10107B7FA87F77F09F7E52E
:102270000C9816F003FA0726CCE616F0F9F9064694
:1022800000285DD016F000FA002800F0AF80A3000F
:10229000234409EB4313002206600271186595F888
:1022A0002430DB073FF59AAD42F2107303FB08F3CD
:1022B00096E595F82520C9B2520962F3020186F825
:1022C000761095F82520C9B2520962F3061186F8F6
:1022D000761095F82510490900E706F18000C6F848
:1022E0008800D4E60B9A3F680AF10B03134412935B
:1022F00012AB194638460C9300F086FD00230E9071
:102300000D93A300234409EB431342F6DC30D3F8CA
:102310008420002140F27123E2FB030140F2E242FB
:102320000023FEF79DFEA7F848000E9A1299384642
:1023300000F0D6F800287FF463AE4FF0010BB3E550
:10234000A300234409EB43131B6A002B93D02846B8
:1023500016F01EFF8FE70DF1470312A901930DF14F
:10236000460332460C91009328460B46202100F08C
:102370000BF9064600287FF44DAEDDF849100D98A4
:1023800019F06CF96F6D002F44D03F680B9A0C99CF
:102390000AF10B0313443846129300F035FDC022B6
:1023A000114606460E90384618F040FE1C491AA306
:1023B000D3E90023A0FB0101FEF752FE129B0D9909
:1023C0000B3320F07F4233441A44284600F0ECFEE1
:1023D00000287FF415AEDBF854309DF847205A757D
:1023E0009DF846300F9E85F829308AE7A3002344E4
:1023F00009EB43131B6A13B1284616F0C9FE304699
:1024000016F03CF937E70D9816F044F90C9816F0E1
:1024100035F930E7BB4647E58D49FD1A0700000056
:1024200000CA9A3B00000000F0B590F8243090F804
:1024300025708BB0C3F342030D46044601210DF114
:10244000230016468DF8233012F026FBC7F38207CF
:1024500002463B463146284617F032FA1C491AA379
:10246000D3E90023A0FB0101FEF7FAFD236998429E
:10247000054621D21B1A00220192164A0293164BDE
:10248000A21AA3FB02320221D20900230A4409AE98
:10249000099112490591CDE903330321D2B2069681
:1024A0000093184613F01CFC314616F09BF938B91E
:1024B000256100200BB0F0BDFBD9C21A0023DBE779
:1024C0000C200BB0F0BD00BF8D49FD1A07000000C5
:1024D00000CA9A3B30200020CDCCCCCCED7B010053
:1024E0002DE9F04700268CB08846C0E905662249F0
:1024F000067017465C22044612F0EEF80546B4F862
:1025000048001E4940F2E24202FB00F002230B9316
:10251000A0FB010116A3D3E90023FEF7A1FD0DF1F5
:102520002C0ACDF820A00694194623691F44144BA9
:102530000793144B05938146002310464FF47A729B
:10254000CDE90367FEF78CFD0435EDB2CDE90190CE
:1025500043462A4600963046032113F04DFB514670
:1025600016F040F90CB0BDE8F08700BFAFF3008073
:102570008D49FD1A07000000747E002000CA9A3BB6
:10258000ED7B010025A501002DE9F04FA3B00C461D
:102590001E4640F201232C990D92A3432D9A0E91D1
:1025A00005460F9200F0A28195F8293005EB8303D0
:1025B000D3F82C9099F8007007F00F0704F400731B
:1025C000072F0B930ED023B90C27384623B0BDE854
:1025D000F08FD6F801203178284623B0BDE8F04FBF
:1025E00017F06CBE09F1040199F802200A910B99C9
:1025F00012F03F0318BF99F8033011B17F2A00F29F
:1026000095810E99089305F1280020F087FE99F82E
:1026100000200178034602F00F0221F03F01114330
:1026200003F8021B834699F802109BF802C014932A
:10263000890961F3871C8BF802C0696D089B05F15D
:102640001C004FF00008002900F0FE82487D0A6857
:10265000139201EB800080690C90C27802301290D6
:1026600002F00100119001F114000F9910920893EB
:1026700020F054FE80469BF8000098F800100C9B58
:1026800000F00F0021F03F01014388F80010197895
:1026900098F80000C1F3801161F3861088F80000FB
:1026A0001978089BC909C0B261F3C71088F8000007
:1026B0009BF8021098F80200890961F3871014F062
:1026C000010288F8020009924FF0010A109A03F003
:1026D000010040F01981002800F0658199F80000A0
:1026E00098F800C00999C0F3801060F3861C88F840
:1026F00000C09BF8000061F386108BF8000009F120
:102700000A010A911198002840F062810C98043067
:10271000089002F0020198071F9140F125810A9963
:1027200098F800C006310A9199F800104046C9098E
:1027300061F3C71C00F810CB4FF0030A9BF80010A0
:102740006FF3C7118BF8001002F0020111B1089964
:102750000631089113F00801179102D00A9902314D
:102760000A91811C099114F0080100F0FB800221FC
:102770003170D6F801101691C6F8010005364AF0FE
:10278000080C12F00801E246189102D008990231B3
:10279000089113F01001199102D00A9903310A919E
:1027A0004FF018018DF854100BF10901109102F04F
:1027B00010011A91E10640F1C880811CC6F8011091
:1027C000032131704CF0100A053602F01001002987
:1027D00000F0C48000211C910899033108911AF07F
:1027E000100F1CBF0530099002F020001B90A006BE
:1027F0005FFA8AF140F19C800998C6F801004AF01E
:102800002001122030708A460536C9B202F020003D
:10281000002800F0968000201D9008981230089043
:10282000880602D5099912310991590610D50A9BDB
:1028300001330A9395F8253003F01C03102B00F0A8
:1028400028824FF058038DF854300BF10A0310938F
:10285000530604D5089B013308934AF0400A1AF046
:1028600040031E9302D0099B01330993109B149AD5
:102870009B1ADBB2022B03D80BF103031093012345
:10288000089A1299501AC0B2022803D80C9A03323F
:10289000089201200C9A92F801C08445C0F0AA81E8
:1028A000099908F102028A1AD2B2022A03D808F161
:1028B0000302099201220B99002900F09380089CE1
:1028C000D6F80110C6F80140ACEB00003478C0B275
:1028D00030708C460536002C40F09B81002900F0BA
:1028E00043820B940D94A446204691E03A4A3B491A
:1028F0003B4840F29F5345F03CF9404080F311883B
:102900004FF0030002DF4FE616F801EB98F800C025
:102910006EF3861C88F800C09BF800C06FF3861C1D
:102920008BF800C000283FF4EDAEE8E612274CE635
:102930000D9880063FF56AAF02F02000002840F0B5
:102940007C8102F020001D906AE70D99C9063FF5D1
:102950003CAF02F01001002940F06A8102F0100142
:102960001C913CE716910AE7099908F10A00002931
:102970007FF4E4AE02F00201002900F051810C99CD
:1029800098F800C008780999C00960F3C71C404650
:102990004FF0030A00F810CB9BF800C061F3C71C8E
:1029A0008BF800C0D3E61198002800F023810C9921
:1029B00098F800C008780999C0F3801060F3861C6D
:1029C00088F800C09BF8000061F386108BF80000C7
:1029D0000C990A3108919CE6D89A0500349B0500B1
:1029E000BC930500640500F107810D99890500F18C
:1029F000B581ACEB00040899DDF82CC0CDF834C0EB
:102A0000E4B204EB0C0EBEF1800F20463FF7DDADC3
:102A100010446044C02800F35E819BF802008BF8EC
:102A20000130013B63F305008BF8020098F8023097
:102A30000B9E099F501E60F3050388F8023033197E
:102A40001A4488F801203846224655F020F80D9B9C
:102A500023B132461946381955F00BF898F8023070
:102A60009A0600F0C580159B5B0640F125810A9A05
:102A7000109912F8013C01F8013C531E0A934B1EB9
:102A800010931B9B13B1089B123B08935FFA8AF3C8
:102A90009F0602D5099B123B09931D9B23B1099800
:102AA0001946122254F0F3FF199B13B10A9B033B02
:102AB0000A93109E95F8253016F8032C6FF3050243
:102AC00006F8032C5C0920F00DFA32288CBF002098
:102AD000012094FAA4F3002CB3FA83F308BF4FF05B
:102AE000FF335B0106F8013C16F8033C60F38613E4
:102AF0006FF3C71306F8033C002306F8023C1A9B49
:102B000013B1089B033B08935FFA8AF3DE0602D5F4
:102B1000099B033B09931C9B23B109981946032287
:102B200054F0B5FF179B13B10A9B023B0A93189B05
:102B300013B1089B023B0893109995F88E3011F859
:102B4000042C03F00F0363F3071201F8042C099916
:102B500011F8012C63F30712169B01F8012C002BCE
:102B600000F00881169B5A781B7802F00F0243EAA6
:102B70000223109911F8042C22F00F0242EA1322CA
:102B800001F8042CDAB201F8052C099901F8022C9D
:102B900011F8012C22F00F0242EA132301F8013C44
:102BA0005FFA8AF39C0777D48B1E5FFA8AF2D0070C
:102BB0000BD5119A002A00F0EA80089A063A1168AB
:102BC00043F8061C928823F8022C9BF802309906E1
:102BD0001CBF9DF854308BF8033098F802309A06E9
:102BE000139B18BF88F803A093F85A30DB077CD4F6
:102BF0000027EAE41F27E8E4D6F801100D91ACEBBA
:102C0000000096F800C00899CDF82CC0C4B2053673
:102C1000F7E64FF0000CCDF834C0CDF82CC0F0E64C
:102C20009BF800C0099961F3C71C8BF800C091E5BF
:102C300008991C914CF0100ACEE54AF02001089842
:102C40001D908A46C9B2E8E518F086F8089B1390F3
:102C5000002800F0B280DDF84CA0CDF844809AF84E
:102C600031100AEB81010120D1F834C0CDF830C019
:102C7000E64642461EF8021BCDF848E001F03F014F
:102C80008CF800108CF801008CF803800AF11C010C
:102C9000E9E44AF0400ADBE51F9B002B7AD0089B51
:102CA000063B089309991A6841F8082C9B8821F87B
:102CB000043CA1F1080378E71E9B002B3FF4E1AE32
:102CC000089A099912F8013C01F8013C531E089337
:102CD0004B1E0993D5E640322244D945327067D065
:102CE0000C9B98455FD045276FE495F83D30139CC9
:102CF00005EB830541462A6C204617F0DBFB3A4979
:102D000037A3D3E90023A0FB0101FEF7A9F9256948
:102D100020F07F44AC4241D22E1B0025139F334943
:102D200002235C223846219311F0D6FC002330495F
:102D30000195021D21AD0591CDE9033303210296D2
:102D4000D2B200931846069512F0CAFF294615F034
:102D500049FD00287FF438AC3C6149E70B980D90A1
:102D600001460446844653E60B9104460899CDF883
:102D700034C046E695F88E201E4902F00F0231F865
:102D80001230581C21F81200C3F30B03F1E60A9A23
:102D9000063A14E70A9B063B0A9383E77FF628AFBF
:102DA000651B0026BAE70F9A6B6D12785A759AE781
:102DB0000E9B1B7885F8293092E7D9457FF405AC46
:102DC0000D4A0E490E4840F2D25344F0D2FE404024
:102DD00080F311884FF0030002DFFFF7F6BB00BF5E
:102DE0008D49FD1A0700000000CA9A3B747E00203E
:102DF000ED7B0100507E0020D89A0500849B0500E1
:102E0000BC9305000000000070B5036A1E4E93F8E5
:102E100021200D4603EB820390F831105A6A00EB33
:102E2000810382B0596B044617F044FB0023312222
:102E30006360A260E360A0FB060111A3D3E9002355
:102E4000FEF70EF9C02220F07F4011462061204697
:102E500018F0ECF80AA3D3E90023A0FB0601FEF763
:102E6000FFF801AA20F07F41032000F0D1FE10B945
:102E7000019B0B332B60002002B070BDAFF30080CC
:102E80008D49FD1A0700000000CA9A3B00000000AF
:102E900070B590F803C01CF0010F14BF00F10A04D4
:102EA000041D1B481CF0020F15461E464FF007027A
:102EB000A1FB000318BF063402FB01311CF0080F10
:102EC00011A3D3E9002318BF0234FEF7C9F8AD1BE4
:102ED00010492844A1FB00310D09490C04D00E4BC8
:102EE000A3FB003001214509A2782078657022F00B
:102EF0001F02C5F3042361F3C71013432070A370AE
:102F0000204670BDAFF3008000CA9A3B000000006D
:102F10008D49FD1A89888888B5814E1B0000000004
:102F20002DE9F04FD0F858B09349DBF8003091B05C
:102F3000682209901846089311F0CEFB0025861DE3
:102F4000FF23CDE90C55F6B28DF82D3004240DF198
:102F50003C0A0DF12E090DF138080CAF0CE00D9B69
:102F6000AB4202D06CB3013CE4B29DF82D30FF2B94
:102F70003AD09E4249D00D9D804B059300200221FE
:102F8000CDE90189CDE90300CDF818A000970DAB7C
:102F90000DF12D020F9112F041FF022800F0D680B2
:102FA0000F9B002BDBD0764A7649774840F62D03FD
:102FB00044F0DFFD404080F311884FF0030002DF52
:102FC000CDE772496E4A704840F62F0344F0D1FDB8
:102FD000404080F311884FF0030002DF9DF82D3050
:102FE000FF2B4FF0FF04C4D16949654A664840F69B
:102FF000310344F0BEFD404080F311884FF00300E0
:1030000002DF9DF82D309E42B5D10E9B61490C9F89
:10301000A3F57422A2F510728A4207D903F1E8736E
:10302000013F03F5D4330C9703F5A573089A5A4969
:10303000526EA1FB03139E0C5649A2F57423A3F50F
:1030400010738B4207D902F1E872013702F5D432CE
:103050000C9702F5A572099B596D4F4B487DA3FB58
:103060000232950C0A7D0E958242D3B204D0013310
:10307000DBB2022B08BF002301EB83018C69E378EC
:10308000D80748BF0A34454858BF0434990748BF99
:1030900006341A0748BF02340721DB06A7FB0003EA
:1030A00001FB073132A3D3E9002348BF0334FDF706
:1030B000D7FF731B1844B0F5161F05D3637843F090
:1030C0004003A0F516106370354BA3FB00231909CC
:1030D0005B0C47D0334AA2FB00200123C0F34C1104
:1030E0006278217063F3451202F0E00242EA112295
:1030F0006270BBF81010BBF81430BDF82E200B44E2
:10310000134423829BF824209BF825108A429BB20B
:1031100006D0BBF826001B1A13F4004F08BF0A465E
:103120001821062313FB02130BEB03025BF8033099
:103130006360137903F01F0323721FF0D1FE237A1B
:1031400043EA4013237211B0BDE8F08F0F9B022BAE
:103150007FF426AF0221002012F0BCFE0F9B022B51
:10316000F8D01DE7C1F30C01BAE700BFAFF3008050
:1031700000CA9A3B00000000507F00203DB40100CF
:10318000189C0500A89B0500BC930500B09B05009A
:10319000E09B0500BFBDF07F83DE1B438D49FD1A18
:1031A00089888888B5814E1B2DE9F043002591F868
:1031B00045300D70C1E9055501EB83030C469B6C4E
:1031C000294E59788DB02046904618F02DFA3123BB
:1031D000A360656022A3D3E90023E560A0FB06019C
:1031E000FDF73EFFB4F86070204920F07F40206179
:1031F00040F2E2436822204603FB07F711F06CFA25
:103200000346A7FB06011E4602230B9314A3D3E932
:103210000023FDF725FF0DF12C09CDF82090069431
:1032200019462369CDE90353114B0793114B0593BD
:103230000746002310464FF47A72FDF711FF063659
:10324000F6B2CDE901704346324600952846032187
:1032500012F0D2FC494615F0C5FA0DB0BDE8F08376
:103260008D49FD1A0700000000CA9A3B507F0020DC
:10327000ED7B010095B40100F0B549788BB00446B0
:1032800018F0D2F91C491AA3D3E90023A0FB0101CD
:10329000FDF7E6FE266920F07F45AE4220D9761B79
:1032A00000270223154909936822204611F014FAD9
:1032B000002313490296821D09AE0591CDE903331F
:1032C0000321D2B2019700931846069612F008FD2A
:1032D000314615F087FA38B9256100200BB0F0BDF2
:1032E000FBD2AF1B0026DCE70C200BB0F0BD00BF0B
:1032F0008D49FD1A0700000000CA9A3B507F00204C
:10330000ED7B0100000000002DE9F04FB0F8409186
:10331000468EB0F82EB0D0F83C7191B04E44BDF856
:103320007450BDF868800B915E44B6B2CDE90E23AF
:10333000721B92B283680A92BDF86C200C92002B2B
:10334000BDF870200D92044609DAC168426823F086
:10335000004391422CBF7F18BF188360FF1A0A9A5E
:10336000638D13FB02F39BB2B3FBF8F218FB02F080
:1033700080B283421FFA82FA80F0CA80C01A40F2FB
:10338000E242974902FB00F0A0FB010192A3D3E9BE
:103390000023FDF765FE20F07F400744D94494F8F0
:1033A00039304D44AD1B554440F2E246DB09E5851A
:1033B00006FB08F540F0BD808A4A8B498B4841F6F0
:1033C000537344F0D6FB404080F311884FF0030064
:1033D00002DF0026A9460C9B0D9AA38542F21073CA
:1033E00003FB025329462046A4F82A80013BB3FB85
:1033F000F5F3A4F8B4311BF0F3FC7D4BA18D2B4405
:10340000881DB3FBF5F39AB29042A4F8AE2102D224
:10341000521A063A92B20B9BA4F8AA2113B10023C8
:10342000A4F8B6310221012022F0EEFF0022022191
:103430008346012011F0C0F96E494FF4E472204632
:1034400011F04AF900F107085FFA88F86A4B009416
:1034500042460121002012F05BFC30F002030CD048
:10346000604A6649614841F67A7344F082FB404005
:1034700080F311884FF0030002DF594DA9FB055975
:1034800055A3D3E9002328464946FDF7E9FD5C4BE7
:10349000089420F07F4AAAFB03310694E81A2369B6
:1034A0000493584B07934FF00702574B059302FBC9
:1034B0000A114FF6FE7369EB010103934FF47A7220
:1034C0000023FDF7CDFD3B46CDE901A00096424625
:1034D0000121002012F090FB30F002030CD0414A91
:1034E0004649424841F68E7344F043FB404080F326
:1034F00011884FF0030002DFBBF1000F63D194F895
:10350000A83143F0010384F8A83111B0BDE8F08F71
:1035100008FB1231324840F2E24389B203FB01F169
:10352000A1FB00012CA3D3E90023FDF799FD3F1A6D
:1035300034E7226C0A99A36CDFF8A4B002FB1133C4
:10354000A3641FF0CFFC814694F89C01C0F34200B5
:103550001FF0CCFC0E9B814406FB03F305FB09F92D
:10356000236509F57429294B09F23F29A3FB093981
:103570004FEA994303FB0AF02364A5EB0309A36C0C
:103580006A080344963A934228BF1346C4E91123BC
:103590000023C4F8A431A0FB0B010FA3D3E900233F
:1035A000FDF75EFD1A4B0F9A3F1AA3FB0230800A0B
:1035B00006FB00F008A3D3E90023A0FB0B01FDF7F5
:1035C0004FFD064607E701220221104611F0F4F8EC
:1035D00095E700BFAFF300808D49FD1A070000009A
:1035E00000CA9A3BF89C050054940500BC93050062
:1035F0007FC3C9017021002095C80100CC9D050042
:103600008D49FD1A3DC80100B119020083DE1B433C
:103610005917B7D10000000038B5044600251CF04A
:10362000F9FC2046C4E9465584F824511EF0EAF816
:1036300013A1D1E9000194F88E30C4F84451C4E9D3
:103640005801C4E94A5523F0180384F83651A4F808
:103650003451A4F83851C4F84751A4F86851C4F85B
:103660005051C4F85451C4F85851C4F85C5184F80E
:103670008E3084F87651658638BD00BFAFF3008088
:103680003F718900100000002DE9F04F13461546E8
:103690000A6853F8086BD2F80080B0F82EC00246D2
:1036A000044652F82EBBD0F81E0094F81C900F462A
:1036B0009178628CA5F808C09970D4F82A306B60B4
:1036C00093B0D4F83A30AB61ADF8442094F83E2082
:1036D0002A77109012AA12E9030005F118030E9040
:1036E000ADF83C101846052111F0D6F96B7F00F0BB
:1036F0003F0060F305036B7794F83F30C3F3040297
:10370000AA77A28EEA810128C9F3801940F2898143
:1037100003F01F031B3303F01F030B2B00F2818107
:1037200092B2002A00F07D813B6800225A60E38E4D
:103730002B82B5F80EA0D8F85420618E0C9140F27F
:10374000E24303FB0AFA002A00F0858198F825106D
:1037500040F6C41240F6A6637F2988BF1A460B9232
:10376000002130461BF050FB94F83F3096F89C2126
:103770005B0963F3430286F89C211FF0B3FB0A90B8
:1037800096F89C01C0F342001FF0B0FB0A9BCA4AA6
:1037900003440AFB03F303F5742303F23F23A2FB64
:1037A00003239B0C6B624FEA5A03963BAB6294F87F
:1037B000313040F2E24202FB03F3AB63238FADF8FA
:1037C000363042F210729BB202FB03A351463046E0
:1037D000013BB3FBFAF3A6F8B4311BF001FBB74B86
:1037E000B74AC6F8B8215344B3FBFAF39AB2A6F825
:1037F000AE21298A881D824204DDC1F57F41FA315C
:103800000A4492B2A6F8AA216B68C6F8A031D8F88B
:103810005430002B00F0748101230A93E20700F179
:103820006181BDF83C30A4F823300E9884F81E90D6
:103830004FF48073C4F81F00A383EB89E3842B8AC1
:103840002385BDF83630638596F89C31C3F3420377
:1038500084F82C30304619F055F8A881E0802146D4
:1038600058467C6814F01CFFAB89E3801C2323714D
:103870000A9BD4F80090002B40F011810A9B23771B
:1038800012F0C8FD002840F0F0802146484614F0B0
:1038900007FF14F00FFF95F85B00B5F85040B5F83E
:1038A0005290012100F007001FF01EF9A14409F217
:1038B000A91909EB0001044682484FF000093123A1
:1038C000B360A1FB00017AA3D3E90023C6F80490FA
:1038D000C6F80C90FDF7C4FB20F07F4030610C99D6
:1038E000FB686D6A40F2E24202FB01330B99303B08
:1038F00019440C1B4A460221012010F05DFFD8F844
:103900005430AAEB0505B3B1D3F800A0504617F028
:10391000DDF9021D6C4BCDF800A0D2B24846012162
:1039200012F0F6F9012800F011819AF85A306FF37D
:1039300000038AF85A30404616F004FC824661487B
:103940005BA3D3E90023A4FB0001FDF789FBCDF8BD
:103950000480BB685C49009120F07F490AF10202B3
:103960003A3BD2B24B440121002012F013FA012855
:1039700000F0D98098F82430DB076ED4304618F078
:10398000C1FF504BA5FB03A8044649A3D3E900237C
:1039900050464146FDF764FB4C4BBF684C4A0792CA
:1039A00020F07F45A5FB0331BAEB0300494B05939B
:1039B00040F2DB130696089333694FF0000BCDE914
:1039C00003B34FF0070303FB051168EB01014FF44C
:1039D0007A720023FDF744FB07343A3FE4B2CDE9A5
:1039E00001503B46CDF8009022460121584612F086
:1039F00003F930F002030CD0374A384938484FF405
:103A0000EE7344F0B6F8404080F311884FF00300A5
:103A100002DF01220221104613B0BDE8F04F10F082
:103A2000CBBE0022C8F8142095F8203062F30003C2
:103A300085F82030E568012658462146267114F0A5
:103A40002FFE28682E71294614F02AFE13B0BDE817
:103A5000F04F14F02FBE0B9382E600230122009357
:103A60001846114612F054F988E72146484614F0EA
:103A700017FED8F850404046D4F8009016F062FB8C
:103A80005FFA80FBBBF1010F3FD800231222A4F89C
:103A900006B023722271AA8962816372F5E66B7F98
:103AA00043F040036B77281D1EF08AFBE883E5E6B0
:103AB0008D49FD1A0700000083DE1B437FC3C90147
:103AC000404B4C0000CA9A3B751902008D49FD1A03
:103AD00045190200B11902009CA20500CC9D050009
:103AE000BC930500234A244924484FF4807344F0D2
:103AF00040F8404080F311884FF0030002DF90E669
:103B0000237FC3F340130A9388E61A4A1C491B48D3
:103B10004FF4AA7344F02DF8404080F311884FF021
:103B2000030002DFB1E714F09DFE80453FF422AFB1
:103B3000104A1449114840F2A62344F01AF84040B4
:103B400080F311884FF0030002DF13E714F08AFEC0
:103B500082453FF4EAAE074A0A49084840F2A623E4
:103B600044F007F8404080F311884FF0030002DF73
:103B7000DBE600BF9CA20500C4950500BC930500D0
:103B800028990500F8A2050038B503460438C0B2EC
:103B900001280D4614D9062B28D0072B02D000246B
:103BA000204638BD002018F0B5FE04460028F6D0A7
:103BB00090F93930002BF2DB03692B60204638BDC9
:103BC00017F026FA04460028E9D0C022114617F063
:103BD0002DFA0D490AA3D3E90023A0FB0101FDF74B
:103BE0003FFA20F07F402860204638BD002017F0C3
:103BF000FDFC04460028D2D0C02117F015FDE8E7EF
:103C00008D49FD1A0700000000CA9A3B0000000021
:103C100030B585B003AD009502AB14461DF084FFAE
:103C2000FF282AD0021FD2B2012A0CD906280ED0B2
:103C3000072822D1DDE9023122680B4413442360B6
:103C4000002005B030BD2946FFF79EFFF2E70020B7
:103C500017F0CCFCA0B1C02117F0E6FC0C490AA378
:103C6000D3E90023A0FB0101FDF7FAF920F07F4022
:103C70002368029A13440344E1E76FF00900E0E788
:103C80000398F5E7AFF300808D49FD1A07000000A7
:103C900000CA9A3B0000000010B5144612F032F939
:103CA000021B12F4000003D1D41C092C02D810BD51
:103CB000002010BD124A134913484FF4EE7343F02D
:103CC00058FF12480721A4FB000301FB04310AA39B
:103CD000D3E90023FDF7C4F90D4902460D4843F02E
:103CE00048FF404080F311884FF0030002DF0120BD
:103CF00010BD00BFAFF3008000CA9A3B0000000077
:103D000044A4050054940500BC9305008D49FD1A98
:103D100044A60500E4A50500032938B5044638D1BA
:103D200032B3072A39D15A681D681F48D117134684
:103D3000C5FB0031012B71F1000211DB00F56E10A3
:103D400000F65D70181816A3D3E9002341F10001B5
:103D5000FDF736F9C1B22046BDE8384046F039BE1D
:103D60001248181861F100010DA3D3E90023EFE711
:103D700019680129C1BF192391FBF3F1B1FA81F14F
:103D8000C1F12201BDE83840CCBFC9B2012125F004
:103D9000A9BABDE8384025F039BB6FF0850038BDC1
:103DA0003AA395000000000040420F00632EB5FFCB
:103DB0002DE9F04F8FB0DFF8F8800B900DF137014F
:103DC0000DF1360014F0E6FC3A4F9DF836A09DF850
:103DD00037B012F097F8D8F800400A90A4FB0754C7
:103DE00031A3D3E90023002621462846FDF738F900
:103DF0000B9B0693CDE907662F4B05938146D8F8B8
:103E0000040029A3D3E90023A0FB0701FDF728F94B
:103E10002A4B29F07F47A7FB033120F07F40072280
:103E2000CDE9036002FB0711E81A64EB01014FF4CE
:103E30007A720023FDF714F90A9B0096CDE9017010
:103E40005A460321504611F0D7FE30F0020426D125
:103E50001B4A1C4800233EF031FAC0B123469DF8AE
:103E600037209DF836000094032111F051FF30F007
:103E7000020311D01449154A1548E42343F079FE92
:103E8000144843F076FE1148E42143F06BFED8F865
:103E90000C000FB0BDE8F08F6FF07300F9E76FF022
:103EA0008B00F6E7AFF300808D49FD1A0700000094
:103EB0001C94002000CA9A3BC9B202008D49FD1A29
:103EC000447B0B0004940020747007000E70070000
:103ED00061BB0500B970070038B50F4D044612F0FC
:103EE00011F8A96812F010F86968B0FBF4F4044402
:103EF0000A4807A3D3E90023A1FB0001FDF7B0F8AE
:103F000020F07F40844294BF0020012038BD00BFD4
:103F10008D49FD1A070000001C94002000CA9A3B3E
:103F200007B50DF1060201A90DF10200FDF75CFADB
:103F300048B11249124A13482B2343F01AFE2B2191
:103F40000F4843F00FFEBDF90620BDF90410BDF97E
:103F5000020000F09BF90C4840F6CD4200233EF0F1
:103F6000BBFE002807DA0949054A06482E2343F01C
:103F700000FE2E21E4E703B05DF804FB58BB05000A
:103F80001CBB050061BB0500000000207EBB0500D6
:103F900008B5024801F02EFA002008BD50030020A9
:103FA00008B5044904483EF0F7FEBDE8084000F0BB
:103FB00063B900BF0065002000000020014801F047
:103FC00047BA00BF5003002008B50B4900F024F8A1
:103FD0000A4840F6CD4200233EF07EFE002809DA72
:103FE00007490848084A1C2343F0C3FD06481C2122
:103FF00043F0B8FD08BD00BFBD3F00000000002039
:104000007EBB050061BB05001CBB0500014B1B68A6
:10401000184700BF406500202DE9F341844D2C680E
:104020002CB1844B844A8548192141F00FF9844B07
:10403000844E19602FF09EFA2146286049F0B8FBA3
:104040002868DFF80482224621464BF04EFB2868A0
:10405000224621464BF063FBF022286811464AF0C5
:1040600018FD23462246092128684AF040FD77487A
:104070004DF0E6F876484DF0E3F876484DF0E0F87C
:10408000286834F04BF83060204634F0C7FE014613
:104090006E484CF07EFF30686C494FF4003248F0B7
:1040A000FFFC30686C4944F620624CF0CDFA306871
:1040B0000822C8214AF0EDFC22466FF02703306841
:1040C00009214AF014FD286832F07CFC6FF00E07DD
:1040D0006249C8F800004BF075FD0097234631682F
:1040E000D8F800005E4EDFF87C81092230F00AFB30
:1040F000286834F013F830600A2034F08FFE01464F
:1041000053484CF046FF306851494FF4003248F0B4
:10411000C7FC3068504944F620624CF095FA30688C
:104120000822C8214AF0B5FC2346224630680921FE
:104130004AF0DDFC286832F045FC4849C8F8000028
:104140004BF040FD009723463168D8F80000464EFA
:10415000DFF81881092230F0D5FA286833F0DEFF45
:104160003060062034F05AFE01463A484CF011FF08
:10417000306838494FF4003248F092FC30683649D4
:1041800044F620624CF060FA30680822C8214AF0F8
:1041900080FC22462823306809214AF0A8FC2868C0
:1041A00032F010FC2D49C8F800004BF00BFD0097D1
:1041B00023463168D8F80000092230F0A3FA2868B5
:1041C00032F05CFC3222064611464AF062FC304670
:1041D0004FF4802149F059F82146286841F613022E
:1041E00048F06AFB4342224630461BB206214AF0A1
:1041F0007EFC2B681E49012230464BF00FFB224605
:10420000304647F6FF714BF0C6FA22461949304650
:104210004BF070FA30462FF01FFA22460146304626
:104220004BF0ADFA304602B0BDE8F04148F064BA58
:104230005C65002095BB0500F8BB0500A7BB050029
:1042400040650020586500204C650020386500203E
:104250003065002028650020E0B1FFFF736407008F
:10426000546500204865002050650020446500200A
:104270000D400000E2BB050010B5034C20684BF078
:10428000A0F80023236010BD5C6500207FB50023EB
:10429000CDE90133ADF80C301D4B1B6806460D46C9
:1042A0001446002B32D01B4B0146012218684CF0FB
:1042B00067F9194B0122186829464CF061F9174B30
:1042C0000122186821464CF05BF9154A33460A2151
:1042D00001A841F0CFFC134B01A918684BF072FC08
:1042E000114A2B460A2101A841F0C4FC0F4B01A939
:1042F00018684BF067FC23460A210D4A01A841F0DB
:10430000B9FC0C4B01A918684BF05CFC04B070BD03
:104310005C65002058650020546500205065002031
:10432000E6BB05004C650020ECBB0500486500209D
:10433000F2BB05004465002008B5034801F05AF8B7
:10434000024B0020187008BD600300201D5801209A
:1043500008B5054B186834F0D7FD044B00221A70DD
:10436000BDE8084000F066BB686500201D580120CC
:1043700010B5002204464FF47A71064834F0A4FDCB
:10438000054B06491860204600F040F9044B012215
:104390001A7010BD3544000068650020A543000078
:1043A0001D58012000B58FB0042822D8DFE800F0A6
:1043B000030914242B0018480FB05DF804EB01F03A
:1043C00047B8164B164A322101A841F053FC154B51
:1043D00001221A701A2109E0134B114A322101A857
:1043E00041F048FC0F4B00221A701B2101A802F07B
:1043F00063F90FB05DF804FB0C4B094A322101A8A8
:1044000041F038FCE6E73221094B054A01A841F0AA
:1044100031FC1E21EAE700BF6003002006BC050056
:104420000BBC05001C58012024BC05002ABC05005B
:104430002FBC050010B543F08FF8D0E9002180684B
:1044400000F020FB0D4B1B78BBB10D4B1868013001
:104450001860FCF775FB0B4B04461868FCF770FB03
:1044600001462046FCF774FC0749FCF7BDFBFCF74E
:1044700081FDBDE8104000F0FDBA10BD1C580120C0
:1044800064650020606500200000C84270B5264BBE
:104490001B78A0B00446002B42D04268234B9A42BE
:1044A0003ED1037A042B18D100F14006204A33464E
:1044B0007D21684641F0DEFB1E4BE26D00251D604C
:1044C0001D4B04F10C0130461A6000F0C1FA284679
:1044D00000F0D0FA194B01221A70237A052B1FD154
:1044E00062692069151E18BF0125FCF729FB124BD4
:1044F00006461868FCF724FB01463046FCF728FC0A
:104500000F49FCF771FBFCF735FD2A460146207B7D
:1045100000F0CEFA074B22691A60084B227B1A7012
:10452000002020B070BD00BF1D58012060D40700DE
:1045300038BC050064650020606500201C5801201F
:104540000000C842014B00201B6818476C65002022
:1045500070B505464BF056F9044628464BF056F91F
:104560000E2812D12046002201214BF0DEF8204611
:10457000002201214BF0D3F842F087FE00220146D1
:104580002046BDE870404BF0BBB80F2806D1002292
:1045900020461146BDE870404BF0C7B807282AD125
:1045A000154D2868A04214D1012148F001FF134B9A
:1045B0001B6860B101209847114B28685988C1F3E6
:1045C0004A110531BDE8704009B24AF04ABA0220EA
:1045D000F1E70C4B1B68A34205D1084B1B68042074
:1045E000BDE870401847084B1B68A34203D1034B3A
:1045F00003201B68F4E770BD806500206C65002017
:10460000E48C0500786500207C6500202DE9F74FDB
:10461000044E346874B1044B044A0548762140F0D6
:1046200015FE00BF8C65002095BB0500C9BC0500C8
:104630005ABC0500DB4BDC4D19602EF09BFF224677
:10464000214630604BF06BF842F26402114630684C
:10465000DFF858B34AF01DFA3068214649F0A8F84F
:104660003068102148F047FE306832F007FA19220E
:10467000074696214AF00DFA38464FF4802148F05B
:1046800004FE224638460A2305214AF030FA3368F0
:10469000C749012238464BF0C1F822462146384628
:1046A0004BF079F82246C34938464BF023F8384698
:1046B0002EF0D2FF2246014638464BF060F811201A
:1046C00034F0ACFB2246014638464AF0FFFF306822
:1046D00032F080FB4FF4877128604BF0BAFD2868F8
:1046E00021464FF4B4724BF0A8FD2868642221469D
:1046F0004BF0C9FD286821464BF0AEFD28684FF409
:104700004032214648F040FA2868022148F0F3FD83
:104710002868224603214BF00DF828684FF4003238
:1047200003214BF007F80E20D5F8008034F076FB1B
:104730004FF40032014640464BF002F8F022286860
:10474000DFF8748211464AF0A4F923462246092173
:1047500028689A4D4AF0CBF93846D6F8009048F0D0
:104760002DFE824648463AF0CFFF1021286048F0DF
:10477000C2FD00942868924B2246214652F02EFC3E
:104780000094434622462868032152F027FCD8F8BB
:1047900000102868C1F38A214AF04BF9B8F80210DA
:1047A0002868DFF82082C1F34A11053109B24AF0C6
:1047B00058F92868082148F068FD2868042148F065
:1047C00064FD28682346224609214AF090F92346D1
:1047D00022467D4928684BF021F82968504647F069
:1047E000DAFE48463AF090FF1021C8F8000048F081
:1047F00082FD00945B462246D8F80000214652F024
:10480000EDFBDBF80010D8F80000DFF8C0B1C1F311
:104810008A214AF00EF9D8F80000022148F035FD4F
:10482000D8F80000042148F030FD00942968D8F839
:1048300000000A2314222FF065FF23462246624916
:10484000D8F800004AF0EAFFD8F80010504647F0C8
:10485000A2FE48463AF058FFDFF874911021C9F8DB
:10486000000048F048FD00945B462246D9F800005D
:10487000214652F0B3FBDBF80010D9F80000C1F379
:104880008A214AF0D6F8D9F80000022148F0FDFC50
:10489000D9F80000042148F0F8FC00942968D9F800
:1048A00000006FF0090311222FF02CFF234622464F
:1048B0004549D9F800004AF0B1FFD9F80010504638
:1048C00047F069FE286847F09BFED8F8000047F0E3
:1048D00097FED9F8000047F093FED9F80010504633
:1048E00047F059FE29683B4D504647F054FED8F832
:1048F0000010504647F04FFE384647F0FDFE306846
:1049000032F060F819232246022128604AF0EFF8BD
:104910002246286802214AF038FF2868032132F035
:104920005DF8286842F232014AF083F828682A4983
:104930004BF048F942F0A9FC2B6801462246184684
:104940004AF00DFF22462868244D0A214AF02EFF26
:10495000306832F037F82D232246022128604AF0D1
:10496000C6F82246286802214AF00FFF2868032172
:1049700032F034F8286842F232014AF05AF82868D6
:1049800017494BF01FF942F080FC2B680146224684
:1049900018464AF0E4FE22462868124D0A214AF0E1
:1049A00005FF21E06C65002074650020A88C0500DF
:1049B000454500009DBC0500D88C050080650020A1
:1049C000E48C05007C65002051450000F08C05005A
:1049D0007865002088650020A1BC05008465002062
:1049E000B5BC050070650020306831F0EBFF6FF05A
:1049F00004032246022128604AF079F822462868FA
:104A000002214AF0C2FE286842F2D1714AF011F840
:104A1000286807494BF0D6F842F037FC2B6801466E
:104A20002246184603B0BDE8F04F4AF098BE00BFDA
:104A30008EC7050010B5044C20684AF0C2FC034A3A
:104A400000232360136010BD8C6500208865002062
:104A500010B5064B0C46014618684BF0B3F8044BF2
:104A600021461868BDE810404BF0ACB888650020BE
:104A700084650020024B01B218684BF0EDBB00BF0B
:104A80007465002000B58BB0074A009103461E21D3
:104A900002A841F0EFF8054B02A918684BF092F814
:104AA0000BB05DF804FB00BFBFBC050070650020C3
:104AB00038B50C4B0C4D044609B218684BF0CCFBD2
:104AC00074B10321286852F091FA084B286859887C
:104AD000C1F34A110531BDE8384009B249F0C1BF00
:104AE0002146EFE77465002080650020E48C050016
:104AF00008B5024800F07EFC002008BD54040020E8
:104B000008B5034842F073FEBDE8084000F064B900
:104B1000DFBC050013B507480C4642F068FE064BA3
:104B20000093064A06482346022100F033F802B0FB
:104B300010BD00BFF2BC0500454B000006BD0500DE
:104B40007003002008B5044842F051FEBDE808405B
:104B5000024800F07DBC00BF0ABD050054040020DF
:104B600070B50A4C25684AF04DFE0146284651F0C2
:104B7000B6FE48B120684AF024FC00232360044BB1
:104B8000BDE870401B68184770BD00BF98650020E5
:104B90009C6500202DE9F04F89B082468348129F22
:104BA000CDE906134CF04CFB4CF200617F484CF011
:104BB000FDF9002030F04CFE044630F03BFE00EBE7
:104BC0004000EF281EDD204630F034FE0323502144
:104BD00000FB0311A02391FBF3F109B27348744E5B
:104BE0004CF0F1F971487F214CF0E9F96F4801214F
:104BF0004CF0EEF934683CB16E4B6F4A6F4890212F
:104C000040F024FB0121E9E76D4B1F6030F0ECFD23
:104C10004AF0FEFA39F06AFF0121306051F046FF98
:104C200033686849184607224AF0F8FD42F26402E8
:104C30001146306849F02DFF3068224619214AF0AC
:104C40002DFD3068224614214AF034FD3068234699
:104C50002246092149F04BFF3068214639F052FFC6
:104C6000A3460290069B30685B450BDC029951F02D
:104C700050FE002C00F09780204609B0BDE8F04FB0
:104C800047F03ABD504939F03DFF0021044648F055
:104C90008FFD204639F044FF012100903CF07AF866
:104CA0004FF000099AF808304B451EDC029839F0A5
:104CB00037FF042205463D4947F0F2FE284631F011
:104CC00081FE5AF8101B4AF07DFF224630682946C3
:104CD00039F032FF0798294647F05DFC102128463D
:104CE00048F009FB0BF1010BBCE71C23DAF80C20A0
:104CF00003FB09F3D518D75C012F21D0022F16D062
:104D0000002F4BD12B7A6A686969019300983B4662
:104D100042F03BFB32F024F80199804648F027FB33
:104D2000AB692A493A4640464AF078FD05E06A6890
:104D300069690098002342F028FB09F10109B1E7F5
:104D40006B690193EB6803932B690493AB686A6802
:104D50000593DDE900013B4642F017FB31F056F9BF
:104D60003946804652F0CEF9DDE9031240464BF059
:104D70006BFC0599002240464BF002FC4FF4806129
:104D8000404648F082FA019B23B94FF400014046A7
:104D900048F07BFAAB690E490022C4E739460D485A
:104DA00040F09EFEC9E709B0BDE8F08F9065002095
:104DB00098650020A5BD05000ABE0500B3BD05002D
:104DC0009C650020614B00009CBD05003F73040002
:104DD000F7720400ECBD050010B5044C206818B152
:104DE0004AF0EFFA0023236010BD00BF9865002051
:104DF00008B5024800F0FEFA002008BD6404002057
:104E000008B5044B186834F07FF8BDE8084000F09E
:104E10009FB800BFA465002008B5074900F028F836
:104E2000064B074800224FF47A711A6034F04CF8B0
:104E3000044B186008BD00BF594E0000A06500205B
:104E4000494E0000A4650020024B1868013018602C
:104E500000F088B8A0650020014800F0F9BA00BF52
:104E600064040020014B1B68184700BFA8650020A0
:104E700070B52E4E35682DB12D4B2E4A2E480E2181
:104E800040F0E4F92D4B19602EF074FB2A462946B8
:104E900030604AF044FC42F264021146306849F046
:104EA000F8FD306831F0EAFD78220446114649F0F9
:104EB000F0FD20464FF4802148F0E7F92B462A46C2
:104EC0002046092149F013FE33681D49012220467E
:104ED0004AF0A4FC2A46204647F6FF714AF05BFCE4
:104EE0002A46184920464AF005FC20462EF0B4FB1D
:104EF0002A46014620464AF042FC3068124E31F004
:104F000061FD2A460A230221306049F0F0FD306835
:104F10000E494AF057FE30682A4629464AF01FFCDF
:104F20002046BDE8704047F0E7BB00BFB0650020F9
:104F300095BB05005FBE050026BE0500A8650020E4
:104F4000654E0000E2BB0500AC65002024BE0700F2
:104F500010B5034C20684AF034FA0023236010BDDA
:104F6000B0650020024B0349024618684AF065BE4E
:104F7000AC650020E4C4050008B54FF4FA7104489C
:104F8000002233F0A1FFBDE8084001214CF0C6B873
:104F9000ED50000008B54AF03FFC064B4FF4FA71A3
:104FA00018700022044833F08FFFBDE8084001214B
:104FB0004CF0B4B81E5801202D51000010B5044C1F
:104FC000206818B14AF0FDF90023236010BD00BF2E
:104FD000BC65002008B528220021054852F071FD6B
:104FE000044B00201870044BFF221A7008BD00BF4C
:104FF000CC6500201F5801201E5801202DE9F341E7
:105000001D46884617462EF0B5FA00231A46092198
:10501000044649F06CFD0022114620464AF085FB0B
:105020002046002148F0C4FB42F2D172204642F2F1
:10503000640149F02EFD2046102148F05CF92B4612
:1050400027490E2220464AF0E9FB0F222B4625492C
:1050500020464AF0E3FB244B2146186847F09BFAB0
:105060004FF48061204648F010F9204632F0B2F942
:10507000414606464BF09CF942F2D1721146304649
:1050800049F007FD00231A460721304649F02FFD5D
:10509000204631F097FC394605464AF093FD42F22E
:1050A000D17200271146284649F0F3FC0F23314600
:1050B0001422284600972FF025FB122033F0AEFE75
:1050C0003A46014628464AF04AFB28463A4611210C
:1050D0004AF05BFB2046256102B0BDE8F08100BFCD
:1050E000F1740400C7740400C465002098B500AFD3
:1050F0006C4688B06A46094B5361094B93610323A0
:1051000042F8103F07484FF4C851002306F0E2F977
:10511000054BA5461B689847BD4698BD70BE050067
:10512000A6BF050098880500C0650020B0B5114CE9
:1051300000AF6D4688B023786A460F4951610F4928
:10514000C2E90613042342F8103F0D4800234FF430
:10515000045106F0BFF9AD46FFF730FF2278094B46
:1051600053F82230084A1B681168084A10689847AB
:10517000BD46B0BD1E58012086BE050096BF050085
:1051800098880500CC650020C4650020C865002013
:105190002DE9F84F5148524D00AF4CF051F84F48AF
:1051A00004213BF0DFFD4D4803213BF0E3FD4D4B77
:1051B0004A4819884BF090FF30F016FB4AF028F867
:1051C000002148F0F5FA2C682CB1474B474A484873
:1051D000B72140F03BF8474EDFF81C813068DFF81C
:1051E0001C91DFF808A12EF0C5F922463B49286042
:1051F00047F056FC3068424E214648F0D9FA2868FC
:10520000224621464AF091FA42F264021146286889
:1052100049F03FFC234622462868092149F067FCF3
:10522000286801213BF0B6FD28680C2148F0D4FA2B
:105230002868032148F0DFFA2868214648F0B8FAC8
:105240003049286823460B224AF0E8FA98F80030E3
:105250009C421EDB2C4A2D492868FFF7CFFE002315
:1052600008222B494AF0DAFA0021286849F0FDFFAC
:1052700047F042FA002228680B2130F0CDF9286867
:10528000002149F0F2FF002148F074FBBD46BDE863
:10529000F88F3368EB468AB09B686A46C2E90743D9
:1052A00040F2024393841B4BC2E9059A42F8103F37
:1052B000194800234FF4345106F00CF956F8041B3A
:1052C0002868D1E902212346DD46FFF797FE2346F1
:1052D000124908224AF0A2FA0134B7E7B465002067
:1052E000BC650020E8FB002093BE0500BEBF0500A2
:1052F000A0BE0500C86500201F580120D8BE0500CB
:10530000CC65002005740400E9BE0500308C050062
:10531000794F00000500000198880500954F0000B6
:10532000B0B5104C00AF6D4688B023786A460E4980
:1053300051610E49C2E90613042342F8103F0C489C
:105340004FF40451002306F0C5F80A4B227853F8B5
:105350002230AD465B689847FF232370FFF718FFA4
:10536000BD46B0BD1E580120EFBE05006BBF050055
:1053700098880500CC650020034B1860034B19602A
:10538000034B1A60FFF704BFC0650020C86500200A
:10539000C4650020B0B5114A114C127823789A42A6
:1053A00000AF17D96D4688B06A460E4951610E4963
:1053B000C2E90613042342F8103F00230B484FF4C0
:1053C000045106F087F80A4B227853F82230AD4694
:1053D0005B689847FFF7F2FDBD46B0BD1F5801203E
:1053E0001E580120FBBE05007BBF05009888050004
:1053F000CC65002008B50A4A1378092B09D9094958
:1054000009480A4AEB2342F0B4FB0848EB2142F07A
:10541000A9FB074941F823000133137008BD00BF01
:105420001F5801200DBF050061BB0500A0BE05008F
:10543000CC65002008B54FF4FA710448002233F01F
:1054400043FDBDE8084001214BF068BE2153000038
:1054500098B500AF6C4688B06A46094B5361094B5A
:105460009361032342F8103F074800234FF4C851CB
:1054700006F030F8A546FFF7DDFFBD4698BD00BF3A
:105480001BBF050045BF05009888050010B5044600
:10549000102006F0CDFE08B1044B43602368836002
:1054A0006368C360BDE8104006F0CABF48D4070077
:1054B0002DE9F04385B0044600AFB148B14E3BF052
:1054C0007DFE306042F025F8D0B933686C4688B074
:1054D0001B686A46AC49AD48C2E905134FF4007336
:1054E0009383AB4B42F8103F4FF4E25142F013F874
:1054F0006FF01205A54628461437BD46BDE8F08377
:105500004FF4C8730022C7E90232306883681D680F
:10551000002D00F0888107F108030321A847054604
:10552000002840F0828130689A4B7B6083689B68DA
:10553000002B00F0A881984A391D9847054600289D
:10554000D9D1964B30681C6041F0E3FF60B99449B3
:10555000944A9548C82342F00CFB944842F009FB5A
:10556000C821904842F0FEFA3368D3F80480012144
:10557000404642F083FE041E2FDAE84688B06A46B1
:105580008B4B8248C2E90534032342F8103F4FF4A5
:10559000C25141F0C0FFC546E84688B06A46854B17
:1055A0007A48C2E90534032342F8103F4FF4C25150
:1055B00041F0B1FFC546306841F0ABFF00285AD139
:1055C0007749784A78484FF4827342F0D2FA7748A4
:1055D00042F0CFFA4FF48271C3E70C21404642F00B
:1055E00064FE041E04DAE84688B06A46724BC8E7D7
:1055F0000321404642F070FE041E04DAE84688B0FB
:105600006A466E4BBDE70321404642F07CFE041E15
:1056100004DAE84688B06A46694BB2E7072140469B
:1056200042F088FE041E04DAE84688B06A46654BFC
:10563000A7E70121404642F094FE041E04DAE84642
:1056400088B06A46604B9CE73946404642F072FD9E
:10565000041EA1DB3B7823F0090343F008033B70F1
:105660003968404642F038FD041EA4DAE84688B0A6
:105670006A46564B85E73368D3F8048001214046DB
:1056800042F09DFE041E2EDAE84688B06A46504B72
:105690003E48C2E90534032342F8103F4FF4C2519B
:1056A00041F039FFC546E84688B06A46494B37485D
:1056B000C2E90534032342F8103F4FF4C25141F0D0
:1056C0002AFFC546306841F024FF28BB3449354ADB
:1056D000354840F2211342F04CFA344842F049FA7E
:1056E00040F221113DE73946404642F08AFD041E52
:1056F00004DAE84688B06A46374BC9E7397841F0A2
:1057000008013970404642F04EFD041EDADAE846E0
:1057100088B06A46314BBBE73368D3F80480012177
:10572000404642F063FE041E1FDA6D4688B06A46AA
:105730002B4B1648C2E90534032342F8103F4FF4BF
:10574000C25141F0E8FEAD4625466C4688B06A4637
:10575000244B0E48C2E90535032342F8103F4FF4AD
:10576000C25141F0D8FEA546C5E63946404642F052
:1057700048FD041E38DA6D4688B06A46164BD8E7F5
:10578000E2BF0500F8650020EBBF0500B888050002
:10579000030000010100390061150000F4650020DC
:1057A00062C005003DC0050061BB05007AC0050070
:1057B000A4C0050070C10500C8C00500E7C0050011
:1057C00002C105001DC1050036C1050050C105001C
:1057D0009AC10500F5C10500B5C10500D5C1050098
:1057E00014C205002FC20500397841F0020139705A
:1057F000404642F0D8FC041E04DA6D4688B06A4682
:10580000224B96E7306841F084FE98B92049214A3E
:10581000214840F23D1342F0ACF9204842F0A9F98A
:1058200040F23D119DE66FF057056C4688B06A4620
:105830001B4B8EE733680121586842F008FD041EB7
:10584000BFF659AEE84688B06D46164B16482E4650
:105850004FF00309C5E9053446F8109F4FF4C251D3
:10586000324641F058FEC546AD46104BC5F8109083
:10587000C5E905340C4832464FF4C25141F04BFEA5
:105880002546C54637E66FF0570534E6D5C1050015
:1058900062C005003DC0050061BB05007AC005007F
:1058A00053C205006CC20500B888050089C2050016
:1058B000B0B51B4C00AF0546206841F02AFE60B928
:1058C0001849194A19485C2342F053F9184842F024
:1058D00050F915485C2142F045F92368294658687B
:1058E00042F0B7FB041E11DA6D4688B06A46114BD0
:1058F000C2E90534032342F8103F0F484FF4C25168
:1059000041F009FE2046AD46BD46B0BDB5F90030B8
:105910006D4688B06A460949C2E90513EAE700BF47
:10592000F865002062C005003DC0050061BB0500B0
:105930007AC00500CAC20500B8880500EBC20500A0
:10594000B0B5164C00AF206841F0E3FD60B91449D2
:10595000144A1548782342F00CF9144842F009F92A
:105960001048782142F0FEF823680121586842F07F
:105970000FFD041E0EDA6D4688B06A460C4B0D48CA
:10598000C2E90534032342F8103F4FF4C25141F0FD
:10599000C2FDAD462046BD46B0BD00BFF865002043
:1059A00062C005003DC0050061BB05007AC005006E
:1059B00088C30500B8880500F8B5444C00AF2068DE
:1059C00051F018FE0346E8B922686C4688B01168A9
:1059D0006A463F48C2E905014FF4007191833D4991
:1059E00042F8101F3C484FF4E25105F073FD6FF090
:1059F0000105A546394AB5FA85F35B0928461370B7
:105A0000BD46F8BD364E304651F0F4FD034628B988
:105A10006C4688B031686A463248DBE77368B16823
:105A20001B683269D8060ED42F49304A30484FF4EB
:105A3000377342F09EF82F4842F09BF82B484FF402
:105A4000377142F08FF8136823F0100313600B686E
:105A50004FF4C0220421304698470546B8B16C4641
:105A60008AB033686A462449C2E905130423C2E9AF
:105A700007304FF400739384204B42F8103F1648D0
:105A800000234FF4315105F025FDA546B2E701464C
:105A9000142204F10C0052F014F804F12002184909
:105AA00062614FF48062C4E901120222214601239F
:105AB000A26140F20E4251F8040B2361A283A37746
:105AC00083681B689847054694E700BF740400206C
:105AD000C5C3050003000001A0880500205801206F
